{
  "contractName": "TimeLock",
  "abi": [
    {
      "inputs": [
        {
          "internalType": "address",
          "name": "_tokenAddress",
          "type": "address"
        }
      ],
      "stateMutability": "nonpayable",
      "type": "constructor"
    },
    {
      "inputs": [],
      "name": "messageCount",
      "outputs": [
        {
          "internalType": "uint256",
          "name": "",
          "type": "uint256"
        }
      ],
      "stateMutability": "view",
      "type": "function",
      "constant": true
    },
    {
      "inputs": [
        {
          "internalType": "uint256",
          "name": "",
          "type": "uint256"
        }
      ],
      "name": "messages",
      "outputs": [
        {
          "internalType": "bytes32",
          "name": "encryptedMessage",
          "type": "bytes32"
        },
        {
          "internalType": "uint256",
          "name": "unlockTime",
          "type": "uint256"
        },
        {
          "internalType": "address",
          "name": "owner",
          "type": "address"
        }
      ],
      "stateMutability": "view",
      "type": "function",
      "constant": true
    },
    {
      "inputs": [],
      "name": "token",
      "outputs": [
        {
          "internalType": "contract IERC20",
          "name": "",
          "type": "address"
        }
      ],
      "stateMutability": "view",
      "type": "function",
      "constant": true
    },
    {
      "inputs": [],
      "name": "tokenRatePerSecond",
      "outputs": [
        {
          "internalType": "uint256",
          "name": "",
          "type": "uint256"
        }
      ],
      "stateMutability": "view",
      "type": "function",
      "constant": true
    },
    {
      "inputs": [
        {
          "internalType": "bytes32",
          "name": "_encryptedMessage",
          "type": "bytes32"
        },
        {
          "internalType": "uint256",
          "name": "_lockDuration",
          "type": "uint256"
        }
      ],
      "name": "lockMessage",
      "outputs": [],
      "stateMutability": "nonpayable",
      "type": "function"
    },
    {
      "inputs": [
        {
          "internalType": "uint256",
          "name": "_messageId",
          "type": "uint256"
        }
      ],
      "name": "unlockMessage",
      "outputs": [
        {
          "internalType": "bytes32",
          "name": "",
          "type": "bytes32"
        }
      ],
      "stateMutability": "view",
      "type": "function",
      "constant": true
    }
  ],
  "bytecode": "0x608060405266038d7ea4c6800060015534801561001b57600080fd5b50604051610c83380380610c83833981810160405281019061003d91906100e6565b806000806101000a81548173ffffffffffffffffffffffffffffffffffffffff021916908373ffffffffffffffffffffffffffffffffffffffff16021790555050610113565b600080fd5b600073ffffffffffffffffffffffffffffffffffffffff82169050919050565b60006100b382610088565b9050919050565b6100c3816100a8565b81146100ce57600080fd5b50565b6000815190506100e0816100ba565b92915050565b6000602082840312156100fc576100fb610083565b5b600061010a848285016100d1565b91505092915050565b610b61806101226000396000f3fe608060405234801561001057600080fd5b50600436106100625760003560e01c80630d80fefd146100675780633dbcc8d1146100995780637a740897146100b7578063bd44290d146100e7578063db9e725814610105578063fc0c546a14610121575b600080fd5b610081600480360381019061007c919061058d565b61013f565b60405161009093929190610623565b60405180910390f35b6100a1610189565b6040516100ae919061065a565b60405180910390f35b6100d160048036038101906100cc919061058d565b61018f565b6040516100de9190610675565b60405180910390f35b6100ef61028d565b6040516100fc919061065a565b60405180910390f35b61011f600480360381019061011a91906106bc565b610293565b005b61012961052e565b604051610136919061075b565b60405180910390f35b60026020528060005260406000206000915090508060000154908060010154908060020160009054906101000a900473ffffffffffffffffffffffffffffffffffffffff16905083565b60035481565b60008060026000848152602001908152602001600020905080600101544210156101ee576040517f08c379a00000000000000000000000000000000000000000000000000000000081526004016101e5906107d3565b60405180910390fd5b3373ffffffffffffffffffffffffffffffffffffffff168160020160009054906101000a900473ffffffffffffffffffffffffffffffffffffffff1673ffffffffffffffffffffffffffffffffffffffff1614610280576040517f08c379a00000000000000000000000000000000000000000000000000000000081526004016102779061083f565b60405180910390fd5b8060000154915050919050565b60015481565b6000600154826102a3919061088e565b90508060008054906101000a900473ffffffffffffffffffffffffffffffffffffffff1673ffffffffffffffffffffffffffffffffffffffff1663dd62ed3e33306040518363ffffffff1660e01b81526004016103019291906108d0565b602060405180830381865afa15801561031e573d6000803e3d6000fd5b505050506040513d601f19601f82011682018060405250810190610342919061090e565b1015610383576040517f08c379a000000000000000000000000000000000000000000000000000000000815260040161037a90610987565b60405180910390fd5b60008054906101000a900473ffffffffffffffffffffffffffffffffffffffff1673ffffffffffffffffffffffffffffffffffffffff166323b872dd3330846040518463ffffffff1660e01b81526004016103e0939291906109a7565b6020604051808303816000875af11580156103ff573d6000803e3d6000fd5b505050506040513d601f19601f820116820180604052508101906104239190610a16565b610462576040517f08c379a000000000000000000000000000000000000000000000000000000000815260040161045990610a8f565b60405180910390fd5b6040518060600160405280848152602001834261047f9190610aaf565b81526020013373ffffffffffffffffffffffffffffffffffffffff16815250600260006003548152602001908152602001600020600082015181600001556020820151816001015560408201518160020160006101000a81548173ffffffffffffffffffffffffffffffffffffffff021916908373ffffffffffffffffffffffffffffffffffffffff1602179055509050506003600081548092919061052490610ae3565b9190505550505050565b60008054906101000a900473ffffffffffffffffffffffffffffffffffffffff1681565b600080fd5b6000819050919050565b61056a81610557565b811461057557600080fd5b50565b60008135905061058781610561565b92915050565b6000602082840312156105a3576105a2610552565b5b60006105b184828501610578565b91505092915050565b6000819050919050565b6105cd816105ba565b82525050565b6105dc81610557565b82525050565b600073ffffffffffffffffffffffffffffffffffffffff82169050919050565b600061060d826105e2565b9050919050565b61061d81610602565b82525050565b600060608201905061063860008301866105c4565b61064560208301856105d3565b6106526040830184610614565b949350505050565b600060208201905061066f60008301846105d3565b92915050565b600060208201905061068a60008301846105c4565b92915050565b610699816105ba565b81146106a457600080fd5b50565b6000813590506106b681610690565b92915050565b600080604083850312156106d3576106d2610552565b5b60006106e1858286016106a7565b92505060206106f285828601610578565b9150509250929050565b6000819050919050565b600061072161071c610717846105e2565b6106fc565b6105e2565b9050919050565b600061073382610706565b9050919050565b600061074582610728565b9050919050565b6107558161073a565b82525050565b6000602082019050610770600083018461074c565b92915050565b600082825260208201905092915050565b7f4d657373616765207374696c6c206c6f636b6564000000000000000000000000600082015250565b60006107bd601483610776565b91506107c882610787565b602082019050919050565b600060208201905081810360008301526107ec816107b0565b9050919050565b7f4e6f7420746865206f776e657200000000000000000000000000000000000000600082015250565b6000610829600d83610776565b9150610834826107f3565b602082019050919050565b600060208201905081810360008301526108588161081c565b9050919050565b7f4e487b7100000000000000000000000000000000000000000000000000000000600052601160045260246000fd5b600061089982610557565b91506108a483610557565b92508282026108b281610557565b915082820484148315176108c9576108c861085f565b5b5092915050565b60006040820190506108e56000830185610614565b6108f26020830184610614565b9392505050565b60008151905061090881610561565b92915050565b60006020828403121561092457610923610552565b5b6000610932848285016108f9565b91505092915050565b7f4e6f7420656e6f75676820746f6b656e20616c6c6f77616e6365000000000000600082015250565b6000610971601a83610776565b915061097c8261093b565b602082019050919050565b600060208201905081810360008301526109a081610964565b9050919050565b60006060820190506109bc6000830186610614565b6109c96020830185610614565b6109d660408301846105d3565b949350505050565b60008115159050919050565b6109f3816109de565b81146109fe57600080fd5b50565b600081519050610a10816109ea565b92915050565b600060208284031215610a2c57610a2b610552565b5b6000610a3a84828501610a01565b91505092915050565b7f546f6b656e207472616e73666572206661696c65640000000000000000000000600082015250565b6000610a79601583610776565b9150610a8482610a43565b602082019050919050565b60006020820190508181036000830152610aa881610a6c565b9050919050565b6000610aba82610557565b9150610ac583610557565b9250828201905080821115610add57610adc61085f565b5b92915050565b6000610aee82610557565b91507fffffffffffffffffffffffffffffffffffffffffffffffffffffffffffffffff8203610b2057610b1f61085f565b5b60018201905091905056fea26469706673582212207bc1f9bb5e16b6a8edf9b2c21b00f9d92d2d8fc93de155cd23d117e427ca4c6564736f6c63430008140033",
  "immutableReferences": {},
  "source": "// SPDX-License-Identifier: MIT\r\npragma solidity ^0.8.0;\r\n\r\nimport \"@openzeppelin/contracts/token/ERC20/IERC20.sol\";\r\n\r\ncontract TimeLock {\r\n    IERC20 public token;\r\n    uint256 public tokenRatePerSecond = 1e15; //  0.001 MTK\r\n\r\n    struct LockedMessage {\r\n        bytes32 encryptedMessage;\r\n        uint256 unlockTime;\r\n        address owner;\r\n    }\r\n\r\n    mapping(uint256 => LockedMessage) public messages;\r\n    uint256 public messageCount;\r\n\r\n    constructor(address _tokenAddress) {\r\n        token = IERC20(_tokenAddress);\r\n    }\r\n\r\n    function lockMessage(bytes32 _encryptedMessage, uint256 _lockDuration) external {\r\n        uint256 cost = _lockDuration * tokenRatePerSecond;\r\n        require(token.allowance(msg.sender, address(this)) >= cost, \"Not enough token allowance\");\r\n        require(token.transferFrom(msg.sender, address(this), cost), \"Token transfer failed\");\r\n\r\n        messages[messageCount] = LockedMessage({\r\n            encryptedMessage: _encryptedMessage,\r\n            unlockTime: block.timestamp + _lockDuration,\r\n            owner: msg.sender\r\n        });\r\n\r\n        messageCount++;\r\n    }\r\n\r\n    function unlockMessage(uint256 _messageId) external view returns (bytes32) {\r\n        LockedMessage storage message = messages[_messageId];\r\n        require(block.timestamp >= message.unlockTime, \"Message still locked\");\r\n        require(message.owner == msg.sender, \"Not the owner\");\r\n        return message.encryptedMessage;\r\n    }\r\n}\r\n",
  "sourcePath": "D:\\Lex\\timelock-project\\contracts\\TimeLock.sol",
  "compiler": {
    "name": "solc",
    "version": "0.8.20+commit.a1b79de6.Emscripten.clang"
  },
  "schemaVersion": "3.4.16",
  "updatedAt": "2025-04-22T23:58:57.778Z",
  "networkType": "ethereum",
  "devdoc": {
    "kind": "dev",
    "methods": {},
    "version": 1
  },
  "userdoc": {
    "kind": "user",
    "methods": {},
    "version": 1
  }
}